{
  "_format": "hh-sol-artifact-1",
  "contractName": "LockContract",
  "sourceName": "contracts/LockContract.sol",
  "abi": [
    {
      "inputs": [],
      "stateMutability": "nonpayable",
      "type": "constructor"
    },
    {
      "anonymous": false,
      "inputs": [
        {
          "indexed": true,
          "internalType": "address",
          "name": "user",
          "type": "address"
        },
        {
          "indexed": false,
          "internalType": "uint256",
          "name": "amount",
          "type": "uint256"
        },
        {
          "indexed": false,
          "internalType": "bytes32",
          "name": "txHash",
          "type": "bytes32"
        }
      ],
      "name": "Deposit",
      "type": "event"
    },
    {
      "inputs": [],
      "name": "admin",
      "outputs": [
        {
          "internalType": "address",
          "name": "",
          "type": "address"
        }
      ],
      "stateMutability": "view",
      "type": "function"
    },
    {
      "inputs": [
        {
          "internalType": "uint256",
          "name": "amount",
          "type": "uint256"
        }
      ],
      "name": "deposit",
      "outputs": [],
      "stateMutability": "nonpayable",
      "type": "function"
    },
    {
      "inputs": [
        {
          "internalType": "bytes32",
          "name": "",
          "type": "bytes32"
        }
      ],
      "name": "processedTransactions",
      "outputs": [
        {
          "internalType": "bool",
          "name": "",
          "type": "bool"
        }
      ],
      "stateMutability": "view",
      "type": "function"
    },
    {
      "inputs": [
        {
          "internalType": "address",
          "name": "user",
          "type": "address"
        },
        {
          "internalType": "uint256",
          "name": "amount",
          "type": "uint256"
        },
        {
          "internalType": "bytes32",
          "name": "txHash",
          "type": "bytes32"
        }
      ],
      "name": "releaseTokens",
      "outputs": [],
      "stateMutability": "nonpayable",
      "type": "function"
    }
  ],
  "bytecode": "0x608060405234801561001057600080fd5b50336000806101000a81548173ffffffffffffffffffffffffffffffffffffffff021916908373ffffffffffffffffffffffffffffffffffffffff160217905550610731806100606000396000f3fe608060405234801561001057600080fd5b506004361061004c5760003560e01c8063ab78dd5314610051578063ac2e49361461006d578063b6b55f251461009d578063f851a440146100b9575b600080fd5b61006b60048036038101906100669190610418565b6100d7565b005b6100876004803603810190610082919061046b565b6101f6565b60405161009491906104b3565b60405180910390f35b6100b760048036038101906100b291906104ce565b610216565b005b6100c1610325565b6040516100ce919061050a565b60405180910390f35b60008054906101000a900473ffffffffffffffffffffffffffffffffffffffff1673ffffffffffffffffffffffffffffffffffffffff163373ffffffffffffffffffffffffffffffffffffffff1614610165576040517f08c379a000000000000000000000000000000000000000000000000000000000815260040161015c90610582565b60405180910390fd5b6001600082815260200190815260200160002060009054906101000a900460ff16156101c6576040517f08c379a00000000000000000000000000000000000000000000000000000000081526004016101bd906105ee565b60405180910390fd5b600180600083815260200190815260200160002060006101000a81548160ff021916908315150217905550505050565b60016020528060005260406000206000915054906101000a900460ff1681565b600033824260405160200161022d93929190610677565b6040516020818303038152906040528051906020012090506001600082815260200190815260200160002060009054906101000a900460ff16156102a6576040517f08c379a000000000000000000000000000000000000000000000000000000000815260040161029d906105ee565b60405180910390fd5b600180600083815260200190815260200160002060006101000a81548160ff0219169083151502179055503373ffffffffffffffffffffffffffffffffffffffff167f1a771fe656018364a9369da21954bb3081cb08b0196c27e43ca59c7cae87273783836040516103199291906106d2565b60405180910390a25050565b60008054906101000a900473ffffffffffffffffffffffffffffffffffffffff1681565b600080fd5b600073ffffffffffffffffffffffffffffffffffffffff82169050919050565b60006103798261034e565b9050919050565b6103898161036e565b811461039457600080fd5b50565b6000813590506103a681610380565b92915050565b6000819050919050565b6103bf816103ac565b81146103ca57600080fd5b50565b6000813590506103dc816103b6565b92915050565b6000819050919050565b6103f5816103e2565b811461040057600080fd5b50565b600081359050610412816103ec565b92915050565b60008060006060848603121561043157610430610349565b5b600061043f86828701610397565b9350506020610450868287016103cd565b925050604061046186828701610403565b9150509250925092565b60006020828403121561048157610480610349565b5b600061048f84828501610403565b91505092915050565b60008115159050919050565b6104ad81610498565b82525050565b60006020820190506104c860008301846104a4565b92915050565b6000602082840312156104e4576104e3610349565b5b60006104f2848285016103cd565b91505092915050565b6105048161036e565b82525050565b600060208201905061051f60008301846104fb565b92915050565b600082825260208201905092915050565b7f4f6e6c792061646d696e2063616e2072656c656173652066756e647300000000600082015250565b600061056c601c83610525565b915061057782610536565b602082019050919050565b6000602082019050818103600083015261059b8161055f565b9050919050565b7f5472616e73616374696f6e20616c72656164792070726f636573736564000000600082015250565b60006105d8601d83610525565b91506105e3826105a2565b602082019050919050565b60006020820190508181036000830152610607816105cb565b9050919050565b60008160601b9050919050565b60006106268261060e565b9050919050565b60006106388261061b565b9050919050565b61065061064b8261036e565b61062d565b82525050565b6000819050919050565b61067161066c826103ac565b610656565b82525050565b6000610683828661063f565b6014820191506106938285610660565b6020820191506106a38284610660565b602082019150819050949350505050565b6106bd816103ac565b82525050565b6106cc816103e2565b82525050565b60006040820190506106e760008301856106b4565b6106f460208301846106c3565b939250505056fea264697066735822122039ac616b35e57c5629495c1bb3e7793327d8ed621e52ecf1c926aebd30e54b4c64736f6c63430008140033",
  "linkReferences": {},
  "deployedLinkReferences": {}
}