{
  "_format": "hh-sol-artifact-1",
  "contractName": "BridgeContract",
  "sourceName": "contracts/BridgeContract.sol",
  "abi": [
    {
      "inputs": [],
      "stateMutability": "nonpayable",
      "type": "constructor"
    },
    {
      "anonymous": false,
      "inputs": [
        {
          "indexed": true,
          "internalType": "address",
          "name": "user",
          "type": "address"
        },
        {
          "indexed": false,
          "internalType": "uint256",
          "name": "amount",
          "type": "uint256"
        },
        {
          "indexed": false,
          "internalType": "bytes32",
          "name": "txHash",
          "type": "bytes32"
        }
      ],
      "name": "TokensReleased",
      "type": "event"
    },
    {
      "inputs": [],
      "name": "admin",
      "outputs": [
        {
          "internalType": "address",
          "name": "",
          "type": "address"
        }
      ],
      "stateMutability": "view",
      "type": "function"
    },
    {
      "inputs": [
        {
          "internalType": "bytes32",
          "name": "",
          "type": "bytes32"
        }
      ],
      "name": "processedTransactions",
      "outputs": [
        {
          "internalType": "bool",
          "name": "",
          "type": "bool"
        }
      ],
      "stateMutability": "view",
      "type": "function"
    },
    {
      "inputs": [
        {
          "internalType": "address",
          "name": "user",
          "type": "address"
        },
        {
          "internalType": "uint256",
          "name": "amount",
          "type": "uint256"
        },
        {
          "internalType": "bytes32",
          "name": "txHash",
          "type": "bytes32"
        }
      ],
      "name": "releaseTokens",
      "outputs": [],
      "stateMutability": "nonpayable",
      "type": "function"
    }
  ],
  "bytecode": "0x608060405234801561001057600080fd5b50336000806101000a81548173ffffffffffffffffffffffffffffffffffffffff021916908373ffffffffffffffffffffffffffffffffffffffff160217905550610578806100606000396000f3fe608060405234801561001057600080fd5b50600436106100415760003560e01c8063ab78dd5314610046578063ac2e493614610062578063f851a44014610092575b600080fd5b610060600480360381019061005b9190610332565b6100b0565b005b61007c60048036038101906100779190610385565b61021f565b60405161008991906103cd565b60405180910390f35b61009a61023f565b6040516100a791906103f7565b60405180910390f35b60008054906101000a900473ffffffffffffffffffffffffffffffffffffffff1673ffffffffffffffffffffffffffffffffffffffff163373ffffffffffffffffffffffffffffffffffffffff161461013e576040517f08c379a00000000000000000000000000000000000000000000000000000000081526004016101359061046f565b60405180910390fd5b6001600082815260200190815260200160002060009054906101000a900460ff161561019f576040517f08c379a0000000000000000000000000000000000000000000000000000000008152600401610196906104db565b60405180910390fd5b600180600083815260200190815260200160002060006101000a81548160ff0219169083151502179055508273ffffffffffffffffffffffffffffffffffffffff167f8f727436c690c3a1fe818a59973c2620ec6cd323a15b9aad6810f6dc64ae4bd48383604051610212929190610519565b60405180910390a2505050565b60016020528060005260406000206000915054906101000a900460ff1681565b60008054906101000a900473ffffffffffffffffffffffffffffffffffffffff1681565b600080fd5b600073ffffffffffffffffffffffffffffffffffffffff82169050919050565b600061029382610268565b9050919050565b6102a381610288565b81146102ae57600080fd5b50565b6000813590506102c08161029a565b92915050565b6000819050919050565b6102d9816102c6565b81146102e457600080fd5b50565b6000813590506102f6816102d0565b92915050565b6000819050919050565b61030f816102fc565b811461031a57600080fd5b50565b60008135905061032c81610306565b92915050565b60008060006060848603121561034b5761034a610263565b5b6000610359868287016102b1565b935050602061036a868287016102e7565b925050604061037b8682870161031d565b9150509250925092565b60006020828403121561039b5761039a610263565b5b60006103a98482850161031d565b91505092915050565b60008115159050919050565b6103c7816103b2565b82525050565b60006020820190506103e260008301846103be565b92915050565b6103f181610288565b82525050565b600060208201905061040c60008301846103e8565b92915050565b600082825260208201905092915050565b7f4f6e6c792061646d696e2063616e2072656c6561736520746f6b656e73000000600082015250565b6000610459601d83610412565b915061046482610423565b602082019050919050565b600060208201905081810360008301526104888161044c565b9050919050565b7f5472616e73616374696f6e20616c72656164792070726f636573736564000000600082015250565b60006104c5601d83610412565b91506104d08261048f565b602082019050919050565b600060208201905081810360008301526104f4816104b8565b9050919050565b610504816102c6565b82525050565b610513816102fc565b82525050565b600060408201905061052e60008301856104fb565b61053b602083018461050a565b939250505056fea2646970667358221220314adfe4da37add8bf2283fc90b3f6b9d11b37f9bd171cf4430207566cb1a35264736f6c63430008140033",
  "linkReferences": {},
  "deployedLinkReferences": {}
}